:020000040000fa
:080000000002040000000000f2
:020000040000fa
:04000800fa020000f8
:020000040000fa
:04000c00fa020000f4
:020000040000fa
:04001000fa020000f0
:020000040000fa
:04001400fa020000ec
:020000040000fa
:04001800fa020000e8
:020000040000fa
:04001c00fa020000e4
:020000040000fa
:04002000fa020000e0
:020000040000fa
:04002400fa020000dc
:020000040000fa
:04002800fa020000d8
:020000040000fa
:04002c00fa020000d4
:020000040000fa
:04003000fa020000d0
:020000040000fa
:04003400fa020000cc
:020000040000fa
:04003800fa020000c8
:020000040000fa
:04003c00fa020000c4
:020000040000fa
:04004000fa020000c0
:020000040000fa
:04004400fa020000bc
:020000040000fa
:04004800fa020000b8
:020000040000fa
:04004c00fa020000b4
:020000040000fa
:04005000fa020000b0
:020000040000fa
:04005400fa020000ac
:020000040000fa
:04005800fa020000a8
:020000040000fa
:04005c00fa020000a4
:020000040000fa
:04006000fa020000a0
:020000040000fa
:04006400fa0200009c
:020000040000fa
:04006800fa02000098
:020000040000fa
:04006c00fa02000094
:020000040000fa
:04007000fa02000090
:020000040000fa
:04007400fa0200008c
:020000040000fa
:04007800fa02000088
:020000040000fa
:04007c00fa02000084
:020000040000fa
:04008000fa02000080
:020000040000fa
:04008400fa0200007c
:020000040000fa
:04008800fa02000078
:020000040000fa
:04008c00fa02000074
:020000040000fa
:04009000fa02000070
:020000040000fa
:04009400fa0200006c
:020000040000fa
:04009800fa02000068
:020000040000fa
:04009c00fa02000064
:020000040000fa
:0400a000fa02000060
:020000040000fa
:0400a400fa0200005c
:020000040000fa
:0400a800fa02000058
:020000040000fa
:0400ac00fa02000054
:020000040000fa
:0400b000fa02000050
:020000040000fa
:0400b400fa0200004c
:020000040000fa
:0400b800fa02000048
:020000040000fa
:0400bc00fa02000044
:020000040000fa
:0400c000fa02000040
:020000040000fa
:0400c400fa0200003c
:020000040000fa
:0400c800fa02000038
:020000040000fa
:0400cc00fa02000034
:020000040000fa
:0400d000fa02000030
:020000040000fa
:0400d400fa0200002c
:020000040000fa
:0400d800fa02000028
:020000040000fa
:0400dc00fa02000024
:020000040000fa
:0400e000fa02000020
:020000040000fa
:0400e400fa0200001c
:020000040000fa
:0400e800fa02000018
:020000040000fa
:0400ec00fa02000014
:020000040000fa
:0400f000fa02000010
:020000040000fa
:0400f400fa0200000c
:020000040000fa
:0400f800fa02000008
:020000040000fa
:0400fc00fa02000004
:020000040000fa
:04010000fa020000ff
:020000040000fa
:04010400fa020000fb
:020000040000fa
:04010800fa020000f7
:020000040000fa
:04010c00fa020000f3
:020000040000fa
:04011000fa020000ef
:020000040000fa
:04011400fa020000eb
:020000040000fa
:04011800fa020000e7
:020000040000fa
:04011c00c802000015
:020000040000fa
:04012000fa020000df
:020000040000fa
:04012400fa020000db
:020000040000fa
:04012800fa020000d7
:020000040000fa
:04012c00fa020000d3
:020000040000fa
:04013000fa020000cf
:020000040000fa
:04013400fa020000cb
:020000040000fa
:04013800fa020000c7
:020000040000fa
:04013c00fa020000c3
:020000040000fa
:04014000fa020000bf
:020000040000fa
:04014400fa020000bb
:020000040000fa
:04014800fa020000b7
:020000040000fa
:04014c00fa020000b3
:020000040000fa
:04015000fa020000af
:020000040000fa
:04015400fa020000ab
:020000040000fa
:04015800fa020000a7
:020000040000fa
:04015c00fa020000a3
:020000040000fa
:04016000fa0200009f
:020000040000fa
:04016400fa0200009b
:020000040000fa
:04020800fa020000f6
:020000040000fa
:04020c00fa020000f2
:020000040000fa
:04021000fa020000ee
:020000040000fa
:04021400fa020000ea
:020000040000fa
:04021800fa020000e6
:020000040000fa
:04021c00fa020000e2
:020000040000fa
:04022000fa020000de
:020000040000fa
:04022400fa020000da
:020000040000fa
:04022800fa020000d6
:020000040000fa
:04022c00fa020000d2
:020000040000fa
:04023000fa020000ce
:020000040000fa
:04023400fa020000ca
:020000040000fa
:04023800fa020000c6
:020000040000fa
:04023c00fa020000c2
:020000040000fa
:04024000fa020000be
:020000040000fa
:04024400fa020000ba
:020000040000fa
:04024800fa020000b6
:020000040000fa
:04024c00fa020000b2
:020000040000fa
:04025000fa020000ae
:020000040000fa
:04025400fa020000aa
:020000040000fa
:04025800fa020000a6
:020000040000fa
:04025c00fa020000a2
:020000040000fa
:04026000fa0200009e
:020000040000fa
:04026400fa0200009a
:020000040000fa
:04026800fa02000096
:020000040000fa
:04026c00fa02000092
:020000040000fa
:04027000fa0200008e
:020000040000fa
:04027400fa0200008a
:020000040000fa
:04027800fa02000086
:020000040000fa
:04027c00fa02000082
:020000040000fa
:04028000fa0200007e
:020000040000fa
:04028400fa0200007a
:020000040000fa
:04028800fa02000076
:020000040000fa
:04028c00fa02000072
:020000040000fa
:04029000fa0200006e
:020000040000fa
:04029400fa0200006a
:020000040000fa
:04029800fa02000066
:020000040000fa
:04029c00fa02000062
:020000040000fa
:0402a000fa0200005e
:020000040000fa
:0402a400fa0200005a
:020000040000fa
:0402a800fa02000056
:020000040000fa
:0402ac00fa02000052
:020000040000fa
:0402b000fa0200004e
:020000040000fa
:0402b400fa0200004a
:020000040000fa
:0402b800fa02000046
:020000040000fa
:0402bc00fa02000042
:020000040000fa
:0402c000fa0200003e
:020000040000fa
:0402c400fa0200003a
:020000040000fa
:0402c800fa02000036
:020000040000fa
:0402cc00fa02000032
:020000040000fa
:0402d000fa0200002e
:020000040000fa
:0402d400fa0200002a
:020000040000fa
:0402d800fa02000026
:020000040000fa
:0402dc00fa02000022
:020000040000fa
:0402e000fa0200001e
:020000040000fa
:0402e400fa0200001a
:020000040000fa
:0402e800fa02000016
:020000040000fa
:0402ec00fa02000012
:020000040000fa
:0402f000fa0200000e
:020000040000fa
:0402f400fa0200000a
:020000040000fa
:0402f800fa02000006
:020000040000fa
:0402fc00fa02000002
:020000040000fa
:04030000fa020000fd
:020000040000fa
:04030400fa020000f9
:020000040000fa
:04030800fa020000f5
:020000040000fa
:04030c00fa020000f1
:020000040000fa
:04031000fa020000ed
:020000040000fa
:04031400fa020000e9
:020000040000fa
:04031800fa020000e5
:020000040000fa
:04031c00c802000013
:020000040000fa
:04032000fa020000dd
:020000040000fa
:04032400fa020000d9
:020000040000fa
:04032800fa020000d5
:020000040000fa
:04032c00fa020000d1
:020000040000fa
:04033000fa020000cd
:020000040000fa
:04033400fa020000c9
:020000040000fa
:04033800fa020000c5
:020000040000fa
:04033c00fa020000c1
:020000040000fa
:04034000fa020000bd
:020000040000fa
:04034400fa020000b9
:020000040000fa
:04034800fa020000b5
:020000040000fa
:04034c00fa020000b1
:020000040000fa
:04035000fa020000ad
:020000040000fa
:04035400fa020000a9
:020000040000fa
:04035800fa020000a5
:020000040000fa
:04035c00fa020000a1
:020000040000fa
:04036000fa0200009d
:020000040000fa
:04036400fa02000099
:020000040000fa
:100400006f8020000e7724000e018800000000009d
:10041000000020000000e000020032000001200087
:100420002002880014000700740007000000e000ac
:1004300003003a00204d2000010020000200370098
:100440000000200001002000810f70000100320038
:1004500014000700000020000000e000020032004d
:100460000000020000000000000302000000000085
:100470000040da000000fe004440a9000000200017
:100480000000e0000300320000002000a00188000e
:100490004440a800000006008a1f78008b1f7800e7
:1004a0000000060091018800800478000000eb0045
:1004b0001a003700e284440032a0b4009905ba0063
:1004c000e284440032a0b4009906ba00e2844400f9
:1004d00032a0b4000006eb00476fde00fd07b2005b
:1004e000636ce10003003a00ebff07000000eb0043
:1004f0000a003700606ce10004003a00005deb0088
:100500008b05e900fdff3e00040037006168e10053
:10051000010032000086eb000b00070019c7ba008b
:100520001905ba000e04e00003003a000a00e000da
:10053000e0ff3a0000000600fe07b2009e018800be
:100540008a047800f5ff3700395dba008b05e900b1
:100550000c003200295dba008b05e900080032006a
:100560000c00e00003003a00e284440032a0b40032
:10057000f5ff370019ddba008b05e900faff3a00f4
:100580008904e800e184440032a0b40000000600c1
:100590003600f800809fbe00829fbe00849fbe0090
:1005a000869fbe000000fa008ba0a90020408000ba
:1005b0000000e00003003a00007c24001a0007005d
:1005c0000200370000782400170007002040800058
:1005d0000000a200204088000080fa004f03be0007
:1005e0004f02be004f01be004f00be003600f900b2
:1005f000004006000040da000000fe000000050098
:020000040000fa
:100600000000fa00d8000700aa0007005100070008
:10061000870007008f0007008ba0a9009ba0a800ff
:1006200021e3a800ffff37000200fa00000f780066
:100630001e007800100078000040780000e8b70045
:100640009e00780064804000100078000040780030
:1006500001e8b7009e007800688040001000780034
:100660000040780002e8b7009e00780070804000eb
:10067000100078000040780003e8b7003000200048
:10068000a5000700000000001111800000102000ec
:10069000008060000000e000fbff320000c8bf00e7
:1006a0000080fb009c00070000000000111180008a
:1006b00000102000008060000000e000fbff32001e
:1006c00001c8bf000080fb0093000700000000008d
:1006d0001111800000102000008060000000e00088
:1006e000fbff320002c8bf000080fb008a00070049
:1006f0000000000011118000001020000080600048
:100700000000e000fbff320003c8bf000080fb00d8
:10071000810007000000000011118000001020007f
:10072000008060000000e000fbff3200c00f2000ee
:100730007900070000000000111180000010200067
:10074000008060000000e000fbff32000080fa0043
:10075000000006000000fa00c0fc2f0060198800ad
:1007600001198000f0cf2f00008060000019880080
:1007700001198000f0f12f00008060000060a000ef
:10078000001988002043a8002143a9002063a90084
:1007900011198000f0ff210000806000101988000e
:1007a0002223a9002343a80011198000f0cf2f00b5
:1007b000008060001019880025e3a900f0c3b30091
:1007c00024e3b7004119800000fe2f000080600084
:1007d0004019880028e3a9002603a90031198000e8
:1007e00090ff2f0000806000301988003003200047
:1007f000801988002183a9001119800030fc2f0086
:1008000000806000c000b3001019880091198000ba
:1008100080ff2f00008060003000b3009019880036
:1008200085a0a90095a0a9000080fa00000006009c
:100830000000fa000a21ef0080de2f007008880017
:100840008500a9009500a90013e1a8000080fa0026
:10085000000006000000fa00bdc3a800e11d8000f2
:10086000f0fc2f0000806000e01d8800e11d80008a
:10087000c0ff2f00008060000010a000e01d880075
:1008800000302000201e8800f0012000301e88006b
:10089000d0002000f01d8800007c2000001e880091
:1008a00000782000101e8800bde3a8000080fa0038
:1008b000000006000000fa000080eb0060198800cc
:1008c000c022ef00c822ef00c422ef00cc22ef00cc
:1008d00071368000f00f2e00808060000030200014
:1008e00001007000703688002002a900011180000c
:1008f00090ff2f00008060000011880020a2a90056
:10090000b00620004011880021e2a8002342a80080
:100910000080fa00000006000200fa00000f7800d4
:100920000000000011118000001020000080600015
:100930000000e000fbff3200001180006600600054
:10094000e60f500003003a009e0078002111880055
:1009500003003700f00f20001e0060002011880007
:100960000080fa00000006000000fa00a00020004d
:10097000303a8800213a8000f0f32f0000806000b8
:10098000203a8800213a800000fe2f00008060009d
:10099000203a88004827ef0040a7a9000080fa000d
:0409a000000006004d
:020000040000fa
:1009a400000800000600000000000000c04700002e
:1009b40040000000000000008047000040000000ec
:0809c40000000000000000002b
:020000040000fa
:0200000401f009
:04000000ffffff00ff
:020000040000fa
:0200000401f009
:04000400ffffff00fb
:020000040000fa
:0200000401f009
:04000800ffffff00f7
:020000040000fa
:0200000401f009
:04000c00830000006d
:020000040000fa
:0200000401f009
:04001000a600000046
:020000040000fa
:0200000401f009
:040014005f00000089
:020000040000fa
:0200000401f009
:04001800f7000000ed
:020000040000fa
:0200000401f009
:04001c00dfff000002
:00000001FF
